:020000040800F2
:10000000000002208D280008052800081328000899
:10001000192800081F2800082528000800000000F3
:100020000000000000000000000000002B28000875
:10003000392800080000000047280008552800085B
:10004000DD280008DD280008DD280008DD2800087C
:10005000DD280008DD280008DD280008DD2800086C
:10006000DD280008DD280008DD280008DD2800085C
:10007000DD280008DD280008DD280008DD2800084C
:10008000DD280008DD280008DD280008DD2800083C
:10009000DD280008DD280008DD280008DD2800082C
:1000A000DD280008DD280008DD280008DD2800081C
:1000B000DD280008DD280008DD280008DD2800080C
:1000C000DD280008DD280008DD280008DD280008FC
:1000D000DD280008DD280008DD280008DD280008EC
:1000E000DD280008DD280008DD280008DD280008DC
:1000F000DD280008DD280008DD280008DD280008CC
:10010000DD280008DD280008DD280008DD280008BB
:10011000DD280008DD280008DD280008DD280008AB
:10012000DD280008DD280008DD280008DD2800089B
:10013000DD280008DD280008DD280008DD2800088B
:10014000DD280008DD280008DD280008DD2800087B
:10015000DD280008DD280008DD280008DD2800086B
:10016000DD280008DD280008DD280008DD2800085B
:10017000DD280008DD280008DD2800080000000058
:08018000DD280008DD2800085D
:1001880010B5054C237833B9044B13B10448AFF3C9
:1001980000800123237010BD100000200000000023
:1001A8003829000808B5034B1BB103490348AFF3CE
:1001B800008008BD00000000140000203829000855
:1001C80053B94AB9002908BF00281CBF4FF0FF31B6
:1001D8004FF0FF3000F07AB9ADF1080C6DE904CEAC
:1001E80000F006F8DDF804E0DDE9022304B070470A
:1001F8002DE9F0478C460D460446089E002B51D148
:100208008A4217466DD9B2FA82FEBEF1000F0BD0B2
:10021800CEF1200C01FA0EF520FA0CFC02FA0EF7CA
:100228004CEA050C00FA0EF44FEA174A250CBCFB01
:10023800FAF81FFA87F90AFB18CC45EA0C4508FBBF
:1002480009F3AB420AD9ED1908F1FF3280F0238196
:10025800AB4240F22081A8F102083D44ED1AA4B255
:10026800B5FBFAF00AFB105544EA054400FB09F90E
:10027800A14509D9E41900F1FF3380F00A81A145AD
:1002880040F2078102383C44A4EB090440EA0840E4
:100298000021002E61D024FA0EF40023346073602C
:1002A800BDE8F0878B4207D9002E54D0002186E89C
:1002B80021000846BDE8F087B3FA83F1002940F031
:1002C8008E80AB4202D3824200F2FA80841A65EB38
:1002D80003050120AC46002E3FD086E81010BDE88B
:1002E800F08712B90127B7FBF2F7B7FA87FEBEF11C
:1002F800000F34D1EB1B3A0C1FFA87FC0121B3FB2A
:10030800F2F8250C02FB183345EA03450CFB08F309
:10031800AB4207D9ED1908F1FF3002D2AB4200F227
:10032800D1808046ED1AA3B2B5FBF2F002FB10555E
:1003380043EA05440CFB00FCA44507D9E41900F185
:10034800FF3302D2A44500F2B8801846A4EB0C048F
:1003580040EA08409DE731463046BDE8F087CEF1D7
:10036800200405FA0EF307FA0EF720FA04F83A0CFF
:1003780025FA04F448EA0308B4FBF2F14FEA1845F9
:1003880002FB11441FFA87FC45EA044501FB0CF304
:10039800AB4200FA0EF409D9ED1901F1FF3080F0F3
:1003A8008A80AB4240F2878002393D44EB1A1FFA3B
:1003B80088F5B3FBF2F002FB103345EA034500FB76
:1003C8000CF3AB4207D9ED1900F1FF386FD2AB42FD
:1003D8006DD902383D44EB1A40EA01418FE7C1F17B
:1003E800200722FA07F88B4005FA01F448EA0303CC
:1003F80020FA07FE4FEA134CFD404EEA040EB5FB07
:10040800FCF94FEA1E440CFB19551FFA83F844EA1D
:10041800054509FB08F4AC4202FA01F200FA01FAB8
:1004280008D9ED1809F1FF3043D2AC4241D9A9F1FE
:1004380002091D442D1B1FFA8EFEB5FBFCF00CFBB8
:1004480010554EEA054400FB08F8A04507D9E41802
:1004580000F1FF3529D2A04527D902381C4440EACB
:100468000940A4EB0804A0FB02894C45C6464D464A
:1004780015D312D056B1BAEB0E0364EB050404FA97
:1004880007F7CB401F43CC40376074600021BDE8BC
:10049800F0871846F8E69046E0E6C245EAD2B8EB9F
:1004A800020E69EB03050138E4E72846D7E7404622
:1004B80091E78146BEE7014678E702383C4445E7C4
:1004C800084608E7A8F102083D442BE7704700BF3B
:1004D80080B500AF0E4A0E4B1B6843F400731360DF
:1004E8000B4A0B4B1B6843F480631360084A084BA4
:1004F8001B6843F480731360032000F0F9FC0020AC
:1005080000F008F802F0B2F80023184680BD00BFDA
:10051800003C024080B582B000AF7860124B1A6888
:10052800124B1B7819464FF47A73B3FBF1F3B2FB05
:10053800F3F3184600F003FD0346002B01D0012316
:100548000EE07B680F2B0AD8002279684FF0FF3045
:1005580000F0D9FC064A7B681360002300E0012301
:1005680018460837BD4680BD0C0000200400002056
:100578000000002080B400AF064B1B781A46064BDB
:100588001B681344044A136000BFBD465DF8047B32
:10059800704700BF040000202C00002080B400AF8A
:1005A800034B1B681846BD465DF8047B704700BFC7
:1005B8002C00002080B584B000AF78600023FB7366
:1005C8007B68002B01D1012333E07B681B6C002B77
:1005D80009D1786802F072F87B6800225A647B6857
:1005E800002283F83C207B681B6C03F01003002B6F
:1005F80018D17B681B6C23F4885323F0020343F063
:1006080002027B681A64786800F0C6FA7B680022E8
:100618005A647B681B6C23F0030343F001027B6878
:100628001A6401E00123FB737B68002283F83C20F5
:10063800FB7B18461037BD4680BD000080B485B0EE
:1006480000AF78600023BB607B6893F83C30012BD7
:1006580001D10223A5E07B68012283F83C207B6856
:100668001B689B6803F00103012B18D07B681B688B
:100678007A681268926842F001029A604C4B1B68D3
:100688004C4AA2FB03239A0C13465B001344BB603D
:1006980002E0BB68013BBB60BB68002BF9D17B68FB
:1006A8001B689B6803F00103012B79D17B681B6CE5
:1006B80023F4E06323F0010343F480727B681A6437
:1006C8007B681B685B6803F48063002B07D07B683A
:1006D8001B6C23F4405343F480527B681A647B6894
:1006E8001B6C03F48053B3F5805F06D17B685B6CA9
:1006F80023F006027B685A6402E07B6800225A6491
:100708007B68002283F83C202B4BFB607B681B68CE
:100718006FF022021A60FB685B6803F01F03002B6E
:100728002AD17B681B68254A934215D07B681B68D1
:10073800234A934205D1204B5B6803F01F03002B2B
:100748000AD07B681B681F4A934229D11A4B5B6801
:1007580003F01F030F2B23D87B681B689B6803F0EB
:100768004053002B1CD17B681B687A68126892681A
:1007780042F080429A6013E07B681B680F4A9342FC
:100788000ED17B681B689B6803F04053002B07D190
:100798007B681B687A681268926842F080429A60A7
:1007A800002318461437BD465DF8047B704700BF28
:1007B8000C00002083DE1B43002301400020014081
:1007C800002101400022014080B483B000AF78606E
:1007D8007B6893F83C30012B01D1022321E07B6830
:1007E800012283F83C207B681B687A68126892684B
:1007F80022F001029A607B681B689B6803F0010382
:10080800002B09D17B681B6C23F4885323F0010368
:1008180043F001027B681A647B68002283F83C205D
:10082800002318460C37BD465DF8047B704780B539
:1008380084B000AF786039600023FB607B681B6878
:100848009B6803F48063B3F5806F13D17B681B68E2
:100858009B6803F48073B3F5807F0BD17B681B6CB6
:1008680043F020027B681A647B68002283F83C20EE
:1008780001235CE0FFF792FEF8601AE03B68B3F1F1
:10088800FF3F16D03B68002B07D0FFF787FE0246D4
:10089800FB68D21A3B689A420BD97B681B6C43F001
:1008A80004027B681A647B68002283F83C200323D7
:1008B8003DE07B681B681B6803F00203022BDDD157
:1008C8007B681B686FF012021A607B681B6C43F42C
:1008D80000727B681A647B681B689B6803F040534E
:1008E800002B23D17B681B7E002B1FD17B681B68E4
:1008F800DB6A03F47003002B06D07B681B689B68D7
:1009080003F48063002B11D17B681B6C23F4807285
:100918007B681A647B681B6C03F48053002B05D139
:100928007B681B6C43F001027B681A64002318463D
:100938001037BD4680BD80B483B000AF78607B6857
:100948001B68DB6C18460C37BD465DF8047B7047A6
:1009580090B484B000AF786039600023BB607B68D6
:1009680093F83C30012B01D1022307E17B68012277
:1009780083F83C203B681B68092B26D97B681A68DA
:100988007B681B68D9683B681B689BB2184603469E
:100998005B0003441E3B072000FA03F3DB430B40D4
:1009A800D3607B681A687B681B68D9683B6898685D
:1009B8003B681B689BB21C4623465B0023441E3BD6
:1009C80000FA03F30B43D36023E07B681A687B6863
:1009D8001B6819693B681B689BB2184603465B0095
:1009E8000344072000FA03F3DB430B4013617B68E1
:1009F8001A687B681B6819693B6898683B681B68BC
:100A08009BB21C4623465B00234400FA03F30B43C6
:100A180013613B685B68062B24D87B6819687B6880
:100A28001B68586B3B685A6813469B001344053B88
:100A38001F2202FA03F3DB4303404B637B68196808
:100A48007B681B68586B3B681B689BB21C463B68FD
:100A58005A6813469B001344053B04FA03F3034307
:100A68004B634CE03B685B680C2B24D87B681968A7
:100A78007B681B68186B3B685A6813469B001344D5
:100A8800233B1F2202FA03F3DB4303400B637B681B
:100A980019687B681B68186B3B681B689BB21C460F
:100AA8003B685A6813469B001344233B04FA03F33C
:100AB80003430B6323E07B6819687B681B68D86A6B
:100AC8003B685A6813469B001344413B1F2202FAB5
:100AD80003F3DB430340CB627B6819687B681B68C0
:100AE800D86A3B681B689BB21C463B685A68134629
:100AF8009B001344413B04FA03F30343CB62224BAC
:100B0800FB607B681B68214A934209D13B681B68DC
:100B1800122B05D1FB685B6843F48002FB685A60BE
:100B28007B681B68194A934223D13B681B68102BCA
:100B380003D03B681B68112B1BD1FB685B6843F42F
:100B48000002FB685A603B681B68102B11D1104BE0
:100B58001B68104AA2FB03239A0C13469B001344FC
:100B68005B00BB6002E0BB68013BBB60BB68002B5D
:100B7800F9D17B68002283F83C20002318461037FF
:100B8800BD4690BC704700BF0023014000200140D3
:100B98000C00002083DE1B4380B485B000AF786072
:100BA800794BFB60FB685B6823F44032FB685A6052
:100BB800FB685A687B685B681A43FB685A607B6805
:100BC8001B687A681268526822F480725A607B68DF
:100BD8001B687A68126851687A68126912020A43B7
:100BE8005A607B681B687A681268526822F0407203
:100BF8005A607B681B687A68126851687A689268DC
:100C08000A435A607B681B687A681268926822F403
:100C180000629A607B681B687A68126891687A68D3
:100C2800D2680A439A607B689B6A584A934222D0EA
:100C38007B681B687A681268926822F070629A6012
:100C48007B681B687A68126891687A68926A0A43B6
:100C58009A607B681B687A681268926822F0405232
:100C68009A607B681B687A68126891687A68D26AA9
:100C78000A439A600FE07B681B687A68126892687A
:100C880022F070629A607B681B687A6812689268C2
:100C980022F040529A607B681B687A6812689268F2
:100CA80022F002029A607B681B687A681268916871
:100CB8007A68127E52000A439A607B6893F8203063
:100CC800002B1BD07B681B687A681268526842F454
:100CD80000625A607B681B687A681268526822F45E
:100CE80060425A607B681B687A68126851687A6843
:100CF800526A013A52030A435A6007E07B681B684C
:100D08007A681268526822F400625A607B681B682D
:100D18007A681268D26A22F47002DA627B681B6809
:100D28007A681268D16A7A68D269013A12050A4368
:100D3800DA627B681B687A681268926822F400722B
:100D48009A607B681B687A68126891687A6892F87A
:100D5800302052020A439A607B681B687A681268DE
:100D6800926822F480629A607B681B687A681268CD
:100D780091687A68526992020A439A6000BF1437F0
:100D8800BD465DF8047B7047002301400100000F59
:100D980080B485B000AF78607B6803F00703FB6020
:100DA8000C4BDB68BB60BA684FF6FF031340BB60AF
:100DB800FB681A02BB68134343F0BF6343F4003374
:100DC800BB60044ABB68D36000BF1437BD465DF8FA
:100DD800047B704700ED00E080B400AF044BDB6893
:100DE8001B0A03F007031846BD465DF8047B7047ED
:100DF80000ED00E080B483B000AF03463960FB71BA
:100E080097F90730002B0ADB0D4997F907303A6844
:100E1800D2B21201D2B20B4483F800230AE0094986
:100E2800FB7903F00F03043B3A68D2B21201D2B245
:100E38000B441A7600BF0C37BD465DF8047B70473B
:100E480000E100E000ED00E080B489B000AFF86098
:100E5800B9607A60FB6803F00703FB61FB69C3F1C3
:100E68000703042B28BF0423BB61FB690433062B4B
:100E780002D9FB69033B00E000237B610122BB69C7
:100E880002FA03F35A1EBB681A407B699A40012193
:100E98007B6901FA03F3591E7B680B40134318461C
:100EA8002437BD465DF8047B7047000080B582B0EA
:100EB80000AF78607B68013BB3F1807F01D30123E9
:100EC8000FE00A4A7B68013B53600F214FF0FF3067
:100ED800FFF790FF054B00229A60044B07221A6027
:100EE800002318460837BD4680BD00BF10E000E06B
:100EF80080B582B000AF78607868FFF749FF00BF1F
:100F08000837BD4680BD80B586B000AF0346B960DE
:100F18007A60FB7300237B61FFF75EFF78617A6874
:100F2800B9687869FFF790FF024697F90F301146C4
:100F38001846FFF75FFF00BF1837BD4680BD80B574
:100F480082B000AF78607868FFF7B0FF03461846B4
:100F58000837BD4680BD000080B489B000AF786016
:100F6800396000237B6100233B610023BB610023C0
:100F7800FB616BE10122FB6902FA03F37B613B68C9
:100F88001A687B6913403B613A697B699A4240F071
:100F98005A813B685B68012B0BD03B685B68022B6E
:100FA80007D03B685B68112B03D03B685B68122B4A
:100FB80030D17B689B68BB61FB695B00032202FA46
:100FC80003F3DB43BA691340BB613B68DA68FB692A
:100FD8005B0002FA03F3BA691343BB617B68BA6921
:100FE8009A607B685B68BB610122FB6902FA03F3C4
:100FF800DB43BA691340BB613B685B681B0903F0BC
:101008000102FB6902FA03F3BA691343BB617B6807
:10101800BA695A607B68DB68BB61FB695B000322C5
:1010280002FA03F3DB43BA691340BB613B689A6871
:10103800FB695B0002FA03F3BA691343BB617B687F
:10104800BA69DA603B685B68022B03D03B685B686F
:10105800122B23D1FB69DA087B68083253F8223057
:10106800BB61FB6903F007039B000F2202FA03F33D
:10107800DB43BA691340BB613B681A69FB6903F03B
:1010880007039B0002FA03F3BA691343BB61FB69C8
:10109800DA087B680832B96943F822107B681B6854
:1010A800BB61FB695B00032202FA03F3DB43BA6905
:1010B8001340BB613B685B6803F00302FB695B009C
:1010C80002FA03F3BA691343BB617B68BA691A6011
:1010D8003B685B6803F08053002B00F0B48000236A
:1010E800FB605F4A5E4B5B6C43F4804353645C4B2C
:1010F8005B6C03F48043FB60FB685A4AFB699B08FE
:10110800023352F82330BB61FB6903F003039B00F1
:101118000F2202FA03F3DB43BA691340BB617B6811
:10112800514A93422BD07B68504A934225D07B6822
:101138004F4A93421FD07B684E4A934219D07B682E
:101148004D4A934213D07B684C4A93420DD07B683A
:101158004B4A934207D07B684A4A934201D10723FE
:101168000EE008230CE006230AE0052308E0042328
:1011780006E0032304E0022302E0012300E0002349
:10118800FA6902F0030292009340BA691343BB6103
:101198003449FB699B080233BA6941F823203A4B6A
:1011A8001B68BB613B69DB43BA691340BB613B68A1
:1011B8005B6803F48033002B03D0BA693B6913439F
:1011C800BB61314ABB6913602F4B5B68BB613B69EC
:1011D800DB43BA691340BB613B685B6803F40033C7
:1011E800002B03D0BA693B691343BB61264ABB692C
:1011F8005360254B9B68BB613B69DB43BA6913406D
:10120800BB613B685B6803F48013002B03D0BA69A9
:101218003B691343BB611C4ABB6993601A4BDB688B
:10122800BB613B69DB43BA691340BB613B685B68E0
:1012380003F40013002B03D0BA693B691343BB6165
:10124800114ABB69D360FB690133FB61FB690F2B52
:101258007FF690AE00BF2437BD465DF8047B70472B
:1012680000380240003801400000024000040240FB
:1012780000080240000C0240001002400014024026
:1012880000180240001C0240003C014080B586B0B6
:1012980000AF78607B68002B01D101235BE27B689B
:1012A8001B6803F00103002B75D0A34B9B6803F068
:1012B8000C03042B0CD0A04B9B6803F00C03082BE9
:1012C80012D19D4B5B6803F48003B3F5800F0BD1FB
:1012D800994B1B6803F40033002B5BD07B685B6879
:1012E800002B57D1012336E27B685B68B3F5803F5A
:1012F80006D1914A904B1B6843F4803313601DE07C
:101308007B685B68B3F5A02F0CD18B4A8A4B1B68AE
:1013180043F480231360884A874B1B6843F4803367
:1013280013600BE0844A844B1B6823F480331360FA
:10133800814A814B1B6823F4802313607B685B68B8
:10134800002B13D0FFF72AF9386108E0FFF726F9D8
:1013580002463B69D31A642B01D90323FBE1764B80
:101368001B6803F40033002BF0D014E0FFF716F9E4
:10137800386108E0FFF712F902463B69D31A642B7B
:1013880001D90323E7E16C4B1B6803F40033002BFE
:10139800F0D100E000BF7B681B6803F00203002B5C
:1013A80063D0654B9B6803F00C03002B0BD0624B9A
:1013B8009B6803F00C03082B1CD15F4B5B6803F49C
:1013C8008003002B16D15C4B1B6803F00203002B33
:1013D80005D07B68DB68012B01D00123BBE15649AE
:1013E800554B1B6823F0F8027B681B69DB0013432D
:1013F8000B603AE07B68DB68002B20D04F4B012262
:101408001A60FFF7CBF8386108E0FFF7C7F8024623
:101418003B69D31A022B01D903239CE1464B1B6875
:1014280003F00203002BF0D04349434B1B6823F021
:10143800F8027B681B69DB0013430B6015E03F4B28
:1014480000221A60FFF7AAF8386108E0FFF7A6F84B
:1014580002463B69D31A022B01D903237BE1364BA1
:101468001B6803F00203002BF0D17B681B6803F0B4
:101478000803002B30D07B685B69002B16D0304BFB
:1014880001221A60FFF78AF8386108E0FFF786F84A
:1014980002463B69D31A022B01D903235BE1264B91
:1014A8005B6F03F00203002BF0D015E0244B002201
:1014B8001A60FFF773F8386108E0FFF76FF8024623
:1014C8003B69D31A022B01D9032344E11A4B5B6F02
:1014D80003F00203002BF0D17B681B6803F00403C0
:1014E800002B00F0A0800023FB75134B1B6C03F04E
:1014F8008053002B0FD10023BB600F4A0E4B1B6C8F
:1015080043F0805313640C4B1B6C03F08053BB6097
:10151800BB680123FB750B4B1B6803F48073002B1E
:1015280021D1084A074B1B6843F480731360FFF707
:1015380035F8386111E000BF00380240000047422A
:10154800800E474200700040FFF728F802463B69CA
:10155800D31A022B01D90323FDE0814B1B6803F446
:101568008073002BF0D07B689B68012B06D17D4AE5
:101578007C4B1B6F43F0010313671CE07B689B687F
:10158800052B0CD1774A774B1B6F43F00403136785
:10159800744A744B1B6F43F0010313670BE0714AE5
:1015A800704B1B6F23F0010313676E4A6D4B1B6F63
:1015B80023F0040313677B689B68002B15D0FEF7A4
:1015C800EDFF38610AE0FEF7E9FF02463B69D31AEE
:1015D80041F28832934201D90323BCE0614B1B6F6F
:1015E80003F00203002BEED014E0FEF7D7FF3861BA
:1015F8000AE0FEF7D3FF02463B69D31A41F288326C
:10160800934201D90323A6E0564B1B6F03F0020354
:10161800002BEED1FB7D012B05D1524A514B1B6C9F
:1016280023F0805313647B689B69002B00F0928041
:101638004C4B9B6803F00C03082B5CD07B689B69C0
:10164800022B41D1484B00221A60FEF7A7FF3861F0
:1016580008E0FEF7A3FF02463B69D31A022B01D923
:10166800032378E03F4B1B6803F00073002BF0D195
:101678003C497B68DA697B681B6A1A437B685B6A4A
:101688009B011A437B689B6A5B08013B1B041A4356
:101698007B68DB6A1B0613434B60334B01221A60DD
:1016A800FEF77CFF386108E0FEF778FF02463B69E9
:1016B800D31A022B01D903234DE02A4B1B6803F0F0
:1016C8000073002BF0D045E0274B00221A60FEF78C
:1016D80065FF386108E0FEF761FF02463B69D31AEF
:1016E800022B01D9032336E01E4B1B6803F000735D
:1016F800002BF0D12EE07B689B69012B01D10123DF
:1017080029E0184B9B68FB60FB6803F480027B6848
:10171800DB699A421CD1FB6803F03F027B681B6AB5
:101728009A4215D1FA6847F6C07313407A68526A2C
:1017380093420DD1FB6803F440327B689B6A9A425E
:1017480006D1FB6803F070627B68DB6A9A4201D0BD
:10175800012300E0002318461837BD4680BD00BFAE
:1017680000700040003802406000474280B584B0F5
:1017780000AF786039607B68002B01D10123CCE091
:10178800684B1B6803F00F023B689A420CD2654B0A
:101798003A68D2B21A70634B1B6803F00F023B68B9
:1017A8009A4201D00123B8E07B681B6803F002036A
:1017B800002B20D07B681B6803F00403002B05D0A6
:1017C800594A594B9B6843F4E05393607B681B6804
:1017D80003F00803002B05D0534A534B9B6843F48E
:1017E800604393605049504B9B6823F0F0027B683C
:1017F8009B6813438B607B681B6803F00103002B15
:1018080044D07B685B68012B07D1474B1B6803F406
:101818000033002B19D101237FE07B685B68022B22
:1018280003D07B685B68032B07D13F4B1B6803F031
:101838000073002B09D101236FE03B4B1B6803F0B9
:101848000203002B01D1012367E03749364B9B681F
:1018580023F003027B685B6813438B60FEF79EFEF0
:10186800F8600AE0FEF79AFE0246FB68D31A41F2D6
:101878008832934201D903234FE02B4B9B6803F036
:101888000C027B685B689B009A42EBD1254B1B6876
:1018980003F00F023B689A420CD9224B3A68D2B245
:1018A8001A70204B1B6803F00F023B689A4201D064
:1018B800012332E07B681B6803F00403002B08D087
:1018C8001949194B9B6823F4E0527B68DB68134382
:1018D8008B607B681B6803F00803002B09D0124952
:1018E800114B9B6823F460427B681B69DB00134340
:1018F8008B6000F021F801460B4B9B681B0903F035
:101908000F030A4AD35C21FA03F3094A1360094B0F
:101918001B681846FEF7FEFD002318461037BD4623
:1019280080BD00BF003C024000380240502900083A
:101938000C000020000000202DE9F04F87B000AF18
:101948000022FA6000227A610022BA6000223A611D
:10195800514A926802F00C02042A07D0082A08D0DB
:10196800002A40F090804D4B3B618FE04C4B3B612F
:101978008CE0494A526802F03F02FA60464A5268CF
:1019880002F48002002A23D0434B5B689B094FF086
:10199800000440F2FF114FF0000203EA010304EAD9
:1019A80002043F4A02FB04F1002202FB03F20A444C
:1019B8003B49A3FB010153181946FB684FF000048B
:1019C8001A462346FEF7FCFB03460C467B614CE0B7
:1019D800314A5268920911464FF0000240F2FF1551
:1019E8004FF0000605EA010506EA020629463246D6
:1019F8004FEA421B4BEAD16B4FEA411A51465A460D
:101A0800AA46B34655465E464D1B62EB0606294676
:101A18003246940144EA91648B015B1A64EB020438
:101A28004FEAC40949EA53794FEAC30843464C468A
:101A380055465E46ED1846EB04062B463446A20290
:101A48007A607A6842EA93527A609B023B6097E830
:101A5800180018462146FB684FF000041A46234632
:101A6800FEF7AEFB03460C467B610B4B5B681B0C19
:101A780003F0030301335B00BB607A69BB68B2FB08
:101A8800F3F33B6102E0054B3B6100BF3B6918463D
:101A98001C37BD46BDE8F08F003802400024F40032
:101AA80040787D0180B582B000AF78607B68002BFC
:101AB80001D101231DE07B6893F83D30DBB2002B98
:101AC80006D17B68002283F83C20786800F03AFE53
:101AD8007B68022283F83D207B681A687B680433A0
:101AE8001946104600F00EF97B68012283F83D2064
:101AF800002318460837BD4680BD000080B584B075
:101B080000AF786039607B681B6801223968184625
:101B180000F048FB7B681B68154A934204D07B6839
:101B28001B68144A934201D1012300E00023002BD3
:101B380007D07B681B687A681268526C42F40042CE
:101B48005A647B681B689B6803F00703FB60FB68AB
:101B5800062B07D07B681B687A681268126842F007
:101B680001021A60002318461037BD4680BD00BF29
:101B7800000001400004014080B584B000AFF86067
:101B8800B9607A60FB6893F83C30012B01D10223DD
:101B9800B4E0FB68012283F83C20FB68022283F84A
:101BA8003D207B680C2B00F29F8001A252F823F0A5
:101BB800ED1B0008F11C0008F11C0008F11C0008CE
:101BC8002D1C0008F11C0008F11C0008F11C00087D
:101BD8006F1C0008F11C0008F11C0008F11C00082B
:101BE800AF1C0008FB681B68B968184600F02AF9A2
:101BF800FB681B68FA681268926942F008029A61E9
:101C0800FB681B68FA681268926922F004029A61FC
:101C1800FB681B68FA6812689169BA6812690A4316
:101C28009A6162E0FB681B68B968184600F07AF9A7
:101C3800FB681B68FA681268926942F400629A614C
:101C4800FB681B68FA681268926922F480629A61DC
:101C5800FB681B68FA6812689169BA68126912020F
:101C68000A439A6141E0FB681B68B968184600F0AE
:101C7800CFF9FB681B68FA681268D26942F008025B
:101C8800DA61FB681B68FA681268D26922F00402FC
:101C9800DA61FB681B68FA681268D169BA68126968
:101CA8000A43DA6121E0FB681B68B968184600F04E
:101CB80023FAFB681B68FA681268D26942F400626A
:101CC800DA61FB681B68FA681268D26922F48062DC
:101CD800DA61FB681B68FA681268D169BA68126928
:101CE80012020A43DA6100E000BFFB68012283F8B0
:101CF8003D20FB68002283F83C200023184610375B
:101D0800BD4680BD80B485B000AF786039607B681F
:101D18001B68FB607B68404A934213D07B68B3F131
:101D2800804F0FD07B683D4A93420BD07B683C4A7A
:101D3800934207D07B683B4A934203D07B683A4A78
:101D4800934208D1FB6823F07003FB603B685B6833
:101D5800FA681343FB607B682F4A93422BD07B6859
:101D6800B3F1804F27D07B682C4A934223D07B68FD
:101D78002B4A93421FD07B682A4A93421BD07B6828
:101D8800294A934217D07B68284A934213D07B682C
:101D9800274A93420FD07B68264A93420BD07B6830
:101DA800254A934207D07B68244A934203D07B6834
:101DB800234A934208D1FB6823F44073FB603B68D5
:101DC800DB68FA681343FB60FB6823F080023B681A
:101DD8005B691343FB607B68FA681A603B689A6822
:101DE8007B68DA623B681A687B689A627B680A4A91
:101DF800934203D07B680C4A934203D13B681A692B
:101E08007B681A637B6801225A6100BF1437BD469C
:101E18005DF8047B704700BF0000014000040040EB
:101E280000080040000C0040000401400040014050
:101E3800004401400048014000180040001C0040D8
:101E48000020004080B487B000AF786039607B68BC
:101E58001B6A23F001027B681A627B681B6A7B613C
:101E68007B685B683B617B689B69FB60FB6823F070
:101E78007003FB60FB6823F00303FB603B681B688F
:101E8800FA681343FB607B6923F002037B613B68BC
:101E98009B687A6913437B617B68204A934203D02D
:101EA8007B681F4A93420CD17B6923F008037B614E
:101EB8003B68DB687A6913437B617B6923F0040321
:101EC8007B617B68154A934203D07B68144A93422E
:101ED80011D13B6923F480733B613B6923F40073A0
:101EE8003B613B685B693A6913433B613B689B69AB
:101EF8003A6913433B617B683A695A607B68FA68C0
:101F08009A613B685A687B685A637B687A691A6287
:101F180000BF1C37BD465DF8047B704700000140D8
:101F28000004014080B487B000AF786039607B68F6
:101F38001B6A23F010027B681A627B681B6A7B614C
:101F48007B685B683B617B689B69FB60FB6823F48B
:101F5800E043FB60FB6823F44073FB603B681B684D
:101F68001B02FA681343FB607B6923F020037B6143
:101F78003B689B681B017A6913437B617B68224A33
:101F8800934203D07B68214A93420DD17B6923F0A9
:101F980080037B613B68DB681B017A6913437B61C3
:101FA8007B6923F040037B617B68174A934203D027
:101FB8007B68164A934213D13B6923F480633B61E3
:101FC8003B6923F400633B613B685B699B003A69AA
:101FD80013433B613B689B699B003A6913433B6130
:101FE8007B683A695A607B68FA689A613B685A6804
:101FF8007B689A637B687A691A6200BF1C37BD46A2
:102008005DF8047B704700BF0000014000040140F8
:1020180080B487B000AF786039607B681B6A23F4AE
:1020280080727B681A627B681B6A7B617B685B686D
:102038003B617B68DB69FB60FB6823F07003FB6036
:10204800FB6823F00303FB603B681B68FA681343D3
:10205800FB607B6923F400737B613B689B681B0210
:102068007A6913437B617B68214A934203D07B687A
:10207800204A93420DD17B6923F400637B613B685E
:10208800DB681B027A6913437B617B6923F48063F5
:102098007B617B68164A934203D07B68154A93425A
:1020A80013D13B6923F480533B613B6923F400530C
:1020B8003B613B685B691B013A6913433B613B68C1
:1020C8009B691B013A6913433B617B683A695A6013
:1020D8007B68FA68DA613B685A687B68DA637B6810
:1020E8007A691A6200BF1C37BD465DF8047B7047E9
:1020F800000001400004014080B487B000AF786060
:1021080039607B681B6A23F480527B681A627B689B
:102118001B6A3B617B685B687B617B68DB69FB6092
:10212800FB6823F4E043FB60FB6823F44073FB6027
:102138003B681B681B02FA681343FB603B6923F486
:1021480000533B613B689B681B033A6913433B613F
:102158007B68124A934203D07B68114A934209D1A3
:102168007B6923F480437B613B685B699B017A69E7
:1021780013437B617B687A695A607B68FA68DA6125
:102188003B685A687B681A647B683A691A6200BFC0
:102198001C37BD465DF8047B704700BF0000014056
:1021A8000004014080B487B000AFF860B9607A607D
:1021B800BB6803F01F03012202FA03F37B61FB688B
:1021C8001A6A7B69DB431A40FB681A62FB681A6A61
:1021D800BB6803F01F03796801FA03F31A43FB682D
:1021E8001A6200BF1C37BD465DF8047B70470000CB
:1021F80080B485B000AF786039607B6893F83C3074
:10220800012B01D102235AE07B68012283F83C208C
:102218007B68022283F83D207B681B685B68FB6053
:102228007B681B689B68BB60FB6823F07003FB60DE
:102238003B681B68FA681343FB607B681B68FA6895
:102248005A607B681B68214A934222D07B681B68CE
:10225800B3F1804F1DD07B681B681D4A934218D08C
:102268007B681B681B4A934213D07B681B681A4A19
:1022780093420ED07B681B68184A934209D07B684A
:102288001B68174A934204D07B681B68154A93421F
:102298000CD1BB6823F08003BB603B685B68BA68FD
:1022A8001343BB607B681B68BA689A607B6801222D
:1022B80083F83D207B68002283F83C2000231846E1
:1022C8001437BD465DF8047B704700BF000001402D
:1022D8000004004000080040000C004000040140D9
:1022E800004001400018004080B483B000AF0346AE
:1022F800FB80FB8807EE903AB8EEE77A0A4BD3EDFD
:10230800007A67EE277A9FED097A77EE877AFCEEF6
:10231800E77AC7ED007A3B889BB218460C37BD4672
:102328005DF8047B704700BF080000200000FA43F6
:1023380080B500AF0B48FEF781F900BF42F210717B
:102348000848FEF774FA0346002BF7D10548FEF754
:10235800F2FA03469AB2044B1A800248FEF734FA9E
:1023680000BF80BD740000207000002080B500AF61
:10237800FEF7AEF800F026F800F03AF900F08CF815
:1023880000F0DCF80B48FEF759F900210A48FFF77E
:10239800B5FBFFF7CDFF094B1B881846FFF7A4FFD5
:1023A80003461A46064B1A80034B1B68044A1288D8
:1023B8005A63EEE77400002030000020700000200F
:1023C800BC00002080B594B000AF07F12003302294
:1023D8000021184600F0A4FA07F10C0300221A6045
:1023E8005A609A60DA601A610023BB60284A284B59
:1023F8001B6C43F080531364254B1B6C03F0805314
:10240800BB60BB6800237B60224A224B1B6843F4F5
:10241800804313601F4B1B6803F480437B607B6819
:1024280002233B620123FB6210233B630223BB634D
:102438000023FB6308233B64A8237B640223BB645B
:102448000423FB6407F120031846FEF71FFF034629
:10245800002B01D000F002F90F23FB6002233B613F
:1024680000237B614FF4A053BB614FF48053FB61A1
:1024780007F10C0305211846FFF778F90346002BEE
:1024880001D000F0EBF800BF5037BD4680BD00BF5B
:10249800003802400070004080B584B000AF3B4671
:1024A80000221A605A609A60DA60214B214A1A6049
:1024B8001F4B4FF480325A601D4B00229A601C4B10
:1024C80000221A611A4B01221A76194B002283F84E
:1024D8002020174B0022DA62154B174A9A62144BD8
:1024E8000022DA60124B0122DA61114B002283F8D4
:1024F80030200F4B01225A610D48FEF75BF8034666
:10250800002B01D000F0AAF800233B6001237B6078
:102518000023BB603B4619460548FEF719FA0346F7
:10252800002B01D000F09AF800BF1037BD4680BDDF
:1025380074000020002001400100000F80B58AB01F
:1025480000AF07F1200300221A605A603B1D0022E9
:102558001A605A609A60DA601A615A619A61224B6D
:10256800224A1A60204B53225A601F4B00229A605D
:102578001D4B44F61F62DA601B4B00221A611A4B8E
:1025880000229A611848FFF78DFA0346002B01D004
:1025980000F064F800233B6200237B6207F120030C
:1025A80019461148FFF724FE0346002B01D000F01E
:1025B80055F860237B600023BB600023FB60002389
:1025C8007B613B1D002219460748FFF7D5FA0346F1
:1025D800002B01D000F042F8034800F0D5F800BF06
:1025E8002837BD4680BD00BF3000002000080040ED
:1025F80080B485B000AF0023FB60174A164B1B6BF5
:1026080043F080031363144B1B6B03F08003FB60E0
:10261800FB680023BB60104A0F4B1B6B43F00103A0
:1026280013630D4B1B6B03F00103BB60BB680023F6
:102638007B60094A084B1B6B43F008031363064B86
:102648001B6B03F008037B607B6800BF1437BD4633
:102658005DF8047B704700BF0038024080B400AFCB
:1026680000BFBD465DF8047B7047000080B483B0AE
:1026780000AF00237B60104A0F4B5B6C43F4804330
:1026880053640D4B5B6C03F480437B607B680023D1
:102698003B60094A084B1B6C43F080531364064B9C
:1026A8001B6C03F080533B603B6800BF0C37BD4692
:1026B8005DF8047B704700BF0038024080B58AB0DF
:1026C80000AF786007F1140300221A605A609A601C
:1026D800DA601A617B681B68174A934227D1002386
:1026E8003B61164A154B5B6C43F480735364134B80
:1026F8005B6C03F480733B613B690023FB600F4A0A
:102708000E4B1B6B43F0010313630C4B1B6B03F065
:102718000103FB60FB6801237B610323BB6100238A
:10272800FB6107F1140319460548FEF715FC00BFC5
:102738002837BD4680BD00BF002001400038024058
:102748000000024080B485B000AF78607B681B68E9
:102758000B4A93420DD10023FB600A4A094B1B6CBC
:1027680043F004031364074B1B6C03F00403FB6082
:10277800FB6800BF1437BD465DF8047B704700BF97
:10278800000800400038024080B588B000AF78608B
:1027980007F10C0300221A605A609A60DA601A6125
:1027A8007B681B68124A93421ED10023BB60114A02
:1027B800104B1B6B43F0080313630E4B1B6B03F0AA
:1027C8000803BB60BB684FF48053FB6002233B6186
:1027D80000237B610023BB610223FB6107F10C032B
:1027E80019460548FEF7B8FB00BF2037BD4680BD37
:1027F8000008004000380240000C024080B400AFDE
:1028080000BFBD465DF8047B704780B400AFFEE7AB
:1028180080B400AFFEE780B400AFFEE780B400AF3D
:10282800FEE780B400AF00BFBD465DF8047B70478B
:1028380080B400AF00BFBD465DF8047B704780B42C
:1028480000AF00BFBD465DF8047B704780B500AFA0
:10285800FDF790FE00BF80BD80B400AF084A084B6A
:10286800D3F8883043F47003C2F88830044B4FF033
:1028780000629A6000BFBD465DF8047B704700BFE8
:1028880000ED00E0DFF834D0002103E00C4B5B588A
:10289800435004310B480C4B42189A42F6D30B4A6A
:1028A80002E0002342F8043B094B9A42F9D3FFF7B0
:1028B800D3FF00F011F8FFF759FD70470000022020
:1028C80070290008000000201000002010000020DF
:1028D800C0000020FEE7000070B50D4E0D4CA41B93
:1028E800A4100025A54209D10B4E0C4C00F020F88D
:1028F800A41BA4100025A54205D170BD56F82530AB
:1029080098470135EEE756F8253098470135F2E744
:102918006829000868290008682900086C29000847
:1029280002440346934200D1704703F8011BF9E7BC
:10293800F8B500BFF8BC08BC9E467047F8B500BFA4
:08294800F8BC08BC9E46704774
:10295000000000000000000001020304060708094F
:0829600098D8FF7F0100000080
:04296800AD010008B5
:04296C0089010008D5
:102970001000000001000000910FFA3E0024F40056
:040000050800288D3A
:00000001FF
